:1000000082C000009BC0000099C0000097C00000A3
:1000100095C0000093C0000091C000008FC0000098
:100020008DC000008BC0000089C0000045C20000E8
:1000300085C0000083C0000081C000007FC00000B8
:100040007DC000007BC0000079C0000077C00000C8
:1000500075C0000073C0000071C000006FC00000D8
:100060006DC000006BC0000069C0000067C00000E8
:1000700065C000001E03500072006F006A0065003A
:1000800074002000530079007300740065006D0057
:100090006500000022034A006F00790073007400BD
:1000A000690063006B0020006500740020006C0094
:1000B00065006400730000000403090409023700AE
:1000C000020100C0FA0904000002FF000000070559
:1000D00081030800050705820308000509040101E2
:1000E00002FF0000000705010308000507050203E1
:1000F0000800051201100100000008041605230085
:1001000002010203010011241FBECFEFD2E0DEBFC7
:10011000CDBF11E0A0E0B1E0E6E4F8E002C0059058
:100120000D92A030B107D9F721E0A0E0B1E001C005
:100130001D92AC30B207E1F70BD083C361CFADD1D4
:100140008AB180638AB98BB180638BB97894089542
:10015000F6DFC0E86ED38091C80087FF24C080918D
:10016000C80087FF04C08091CE0090E002C08FEFEE
:100170009FEF9C01207E332720323105A1F4282FE8
:1001800021708E719927959587952093F100909114
:10019000E8009E7F9093E8008093F1008091E80052
:1001A0008E7F8093E8008091E80082FF15C08091E7
:1001B000E80085FF11C08091F1008295880F807E54
:1001C000C82B8091C80085FFFCCFC093CE008091E2
:1001D000E8008B7F8093E8008091E80082FFBACF2F
:1001E0008091E80085FFB6CF8091F100C82B809107
:1001F000C80085FFFCCFC093CE008091E8008B7FC4
:100200008093E800A7CF0895292F332722303105A6
:1002100059F02330310569F021303105E9F482E1EC
:1002200090E023EF30E01CC087E390E02CEB30E05F
:1002300017C099278130910549F028F0029761F4A1
:10024000E4E7F0E005C0E8EBF0E002C0E4E9F0E04C
:10025000849190E09F0104C080E090E020E030E0D5
:10026000FA0131832083089520910A0130910B0116
:100270002617370748F06115710539F42091E80019
:100280002E7F2093E80001C0B901FC0120E0611538
:10029000710559F18EB38823D1F18530D1F1809168
:1002A000E80083FD38C08091E80082FD2AC080917B
:1002B000E80080FFECCF8091F20090E061157105BD
:1002C00051F08830910538F421912093F10061506C
:1002D00071090196F3CF21E0089709F020E08091A1
:1002E000E8008E7F8093E800D2CF2111D3CF09C0E0
:1002F0008EB3882361F0853061F08091E80083FD42
:100300000AC08091E80082FFF3CF80E0089582E088
:10031000089583E0089581E0089520910A013091C5
:100320000B012617370748F06115710539F4209144
:10033000E8002E7F2093E80001C0B901FC0120E015
:100340006115710561F18EB38823D9F18530D9F13A
:100350008091E80083FD39C08091E80082FD2BC0C8
:100360008091E80080FFECCF8091F20090E0611571
:10037000710559F08830910540F424912093F100E3
:100380003196615071090196F2CF21E0089709F08A
:1003900020E08091E8008E7F8093E800D1CF21118A
:1003A000D2CF09C08EB3882361F0853061F080918F
:1003B000E80083FD0AC08091E80082FFF3CF80E06F
:1003C000089582E0089583E0089581E00895EBEEBA
:1003D000F0E0808181608083EDEEF0E01082609338
:1003E000EC0040838091EE00881F8827881F0895C5
:1003F0008091040187FF0FC08091E80082FD04C056
:100400008EB38111F9CF10C08091E8008B7F0AC0B4
:100410008EB3882349F08091E80080FFF9CF809166
:10042000E8008E7F8093E800089540D042D080910C
:10043000D8008F778093D8008091D800806880930F
:10044000D8008091D8008F7D8093D80084E089BD4A
:1004500086E089BD09B400FEFDCF1EBA10920001EE
:10046000109202011092010142E060E080E0AFDFF3
:100470008091E1008E7F8093E1008091E2008160B5
:100480008093E2008091E20088608093E200809196
:10049000E0008E7F8093E0000895E3E6F0E0808145
:1004A0008E7F808381E080930301BFCF1092E200B2
:1004B00008951092E10008951F920F920FB60F92C7
:1004C00011242F933F934F935F936F937F938F9359
:1004D0009F93AF93BF93EF93FF938091E10082FFCF
:1004E0000AC08091E20082FF06C08091E1008B7F0C
:1004F0008093E1009DD18091E10080FF16C0809142
:10050000E20080FF12C08091E2008E7F8093E200C3
:100510008091E20080618093E2008091D800806247
:100520008093D80019BC1EBA83D18091E10084FF6A
:100530002EC08091E20084FF2AC084E089BD86E05D
:1005400089BD09B400FEFDCF8091D8008F7D8093D6
:10055000D8008091E1008F7E8093E1008091E200DD
:100560008F7E8093E2008091E20081608093E200C0
:1005700080910001882311F084E007C08091E3009E
:1005800087FD02C081E001C083E08EBB51D1809124
:10059000E10083FF21C08091E20083FF1DC08091B4
:1005A000E100877F8093E10082E08EBB1092000122
:1005B0008091E1008E7F8093E1008091E2008E7F48
:1005C0008093E2008091E20080618093E20042E04B
:1005D00060E080E0FCDE2CD1FF91EF91BF91AF9104
:1005E0009F918F917F916F915F914F913F912F914B
:1005F0000F900FBE0F901F9018951F93CF93DF930E
:10060000CDB7DEB7AA970FB6F894DEBF0FBECDBF49
:10061000E4E0F1E08091F100819321E0EC30F20719
:10062000C9F7F1DD8091E80083FFEAC08091040101
:1006300090910501953009F43CC030F4913029F1D6
:1006400068F0933011F1DCC0983009F4A7C09930FC
:1006500009F4B6C0963009F0D3C04CC0803829F0F8
:10066000823809F0CDC080E006C0809101019091F0
:100670000201911182609091E800977F9093E800C9
:100680008093F1001092F10094C0282F2D7F09F083
:10069000B7C08111B5C080910601813009F0B0C0AA
:1006A000933009F080E0809302018091E800877F19
:1006B00083C08111A5C0109106011F778091E300CE
:1006C0008078812B8093E3008091E800877F80937E
:1006D000E8008EDE8091E80080FFFCCF8091E3008F
:1006E00080688093E300111102C082E001C083E0C2
:1006F0008EBB86C08058823008F082C0809106018F
:10070000909107018C3D23E0920771F583E08A8385
:100710008AE289834FB7F894DE01139620E03EE029
:1007200051E2E32FF0E050935700E49120FF03C023
:10073000E295EF703F5FEF708E2F90E0EA3010F09F
:10074000C79601C0C0968D939D932F5F243149F7C2
:100750004FBF8091E800877F8093E8006AE270E0F5
:10076000CE01019681DD14C06091080170910901EC
:10077000AE014F5F5F4F48DDBC01892B09F440C0DB
:100780009091E800977F9093E80089819A81C5DD78
:100790008091E8008B7F8093E80032C0803881F53B
:1007A0008091E800877F8093E8008091000180932A
:1007B000F1008091E8008E7F8093E80019DE20C070
:1007C00081111EC08091060190910701992702971F
:1007D000BCF48091E800877F8093E8008091060157
:1007E0008093000105DE80910001811106C0809197
:1007F000E30087FD02C081E001C084E08EBB18D019
:100800008091E80083FF0AC08091E800877F809391
:10081000E8008091EB0080628093EB00AA960FB60F
:10082000F894DEBF0FBECDBFDF91CF911F91089529
:1008300008958EB3882321F08091E80083FDDDCEFA
:060840000895F894FFCFBB
:00000001FF
