:100000000C9434000C943E000C943E000C943E0082
:100010000C943E000C943E000C943E000C943E0068
:100020000C943E000C943E000C943E000C943E0058
:100030000C943E000C943E000C943E000C943E0048
:100040000C943E000C943E000C943E000C943E0038
:100050000C943E000C943E000C943E000C943E0028
:100060000C943E000C943E0011241FBECFEFD8E04C
:10007000DEBFCDBF0E94A6000C94F1000C940000DE
:10008000092E000CAA0BBB0B9C01AD0184E0220FD2
:10009000331F441F551F8A95D1F760E074E284EF47
:1000A00090E00E94CF00215031093093C500209389
:1000B000C40088E18093C10086E08093C200E0EC38
:1000C000F0E080818D7F808308958AB183788AB93A
:1000D0008BB18C678BB9089584B18F6384B908950F
:1000E0008091C000807808959091C00095FFFCCF6A
:1000F0008093C60008958091C00087FFFCCF809157
:10010000C60008956F3621F0603719F461E601C02A
:1001100061E470E0AB014154510921E030E0F901A4
:1001200002C0EE0FFF1F4A95E2F78E2B6156710950
:1001300001C0220F6A95EAF720958223089599B1AC
:100140009C7781E09C3709F480E0089580E895E28F
:100150000E9440000E9465000E946C00C0E00E9466
:100160009F00882331F089B18695869580620E9430
:1001700074008091C00087FF08C00E947B00682F38
:100180008C2F0E948200C82F85B92FEF89EF90E055
:10019000215080409040E1F700C00000E0CFA1E294
:1001A0001A2EAA1BBB1BFD010DC0AA1FBB1FEE1FF1
:1001B000FF1FA217B307E407F50720F0A21BB30B3C
:1001C000E40BF50B661F771F881F991F1A9469F7B8
:1001D00060957095809590959B01AC01BD01CF0114
:0601E0000895F894FFCF22
:00000001FF
